{
  "address": "0x4e8667bf8dDD17e4807FB94F418bEf3Bb9B7dF44",
  "abi": [
    {
      "inputs": [
        {
          "internalType": "address",
          "name": "owner",
          "type": "address"
        },
        {
          "internalType": "string",
          "name": "_name",
          "type": "string"
        },
        {
          "internalType": "string",
          "name": "_symbol",
          "type": "string"
        }
      ],
      "stateMutability": "nonpayable",
      "type": "constructor"
    },
    {
      "anonymous": false,
      "inputs": [
        {
          "indexed": true,
          "internalType": "address",
          "name": "owner",
          "type": "address"
        },
        {
          "indexed": true,
          "internalType": "address",
          "name": "spender",
          "type": "address"
        },
        {
          "indexed": false,
          "internalType": "uint256",
          "name": "value",
          "type": "uint256"
        }
      ],
      "name": "Approval",
      "type": "event"
    },
    {
      "anonymous": false,
      "inputs": [
        {
          "indexed": false,
          "internalType": "address",
          "name": "",
          "type": "address"
        },
        {
          "indexed": false,
          "internalType": "uint256",
          "name": "",
          "type": "uint256"
        },
        {
          "indexed": false,
          "internalType": "address",
          "name": "",
          "type": "address"
        },
        {
          "indexed": false,
          "internalType": "uint256",
          "name": "",
          "type": "uint256"
        }
      ],
      "name": "ExchangeTokens",
      "type": "event"
    },
    {
      "anonymous": false,
      "inputs": [
        {
          "indexed": true,
          "internalType": "address",
          "name": "previousOwner",
          "type": "address"
        },
        {
          "indexed": true,
          "internalType": "address",
          "name": "newOwner",
          "type": "address"
        }
      ],
      "name": "OwnershipTransferred",
      "type": "event"
    },
    {
      "anonymous": false,
      "inputs": [
        {
          "indexed": true,
          "internalType": "address",
          "name": "erc20",
          "type": "address"
        }
      ],
      "name": "RemoveExchangeRate",
      "type": "event"
    },
    {
      "anonymous": false,
      "inputs": [
        {
          "indexed": true,
          "internalType": "address",
          "name": "erc20",
          "type": "address"
        },
        {
          "indexed": false,
          "internalType": "uint256",
          "name": "rate",
          "type": "uint256"
        }
      ],
      "name": "SetExchangeRate",
      "type": "event"
    },
    {
      "anonymous": false,
      "inputs": [
        {
          "indexed": true,
          "internalType": "address",
          "name": "from",
          "type": "address"
        },
        {
          "indexed": true,
          "internalType": "address",
          "name": "to",
          "type": "address"
        },
        {
          "indexed": false,
          "internalType": "uint256",
          "name": "value",
          "type": "uint256"
        }
      ],
      "name": "Transfer",
      "type": "event"
    },
    {
      "inputs": [
        {
          "internalType": "address",
          "name": "owner",
          "type": "address"
        },
        {
          "internalType": "address",
          "name": "spender",
          "type": "address"
        }
      ],
      "name": "allowance",
      "outputs": [
        {
          "internalType": "uint256",
          "name": "",
          "type": "uint256"
        }
      ],
      "stateMutability": "view",
      "type": "function"
    },
    {
      "inputs": [
        {
          "internalType": "address",
          "name": "spender",
          "type": "address"
        },
        {
          "internalType": "uint256",
          "name": "amount",
          "type": "uint256"
        }
      ],
      "name": "approve",
      "outputs": [
        {
          "internalType": "bool",
          "name": "",
          "type": "bool"
        }
      ],
      "stateMutability": "nonpayable",
      "type": "function"
    },
    {
      "inputs": [
        {
          "internalType": "address",
          "name": "account",
          "type": "address"
        }
      ],
      "name": "balanceOf",
      "outputs": [
        {
          "internalType": "uint256",
          "name": "",
          "type": "uint256"
        }
      ],
      "stateMutability": "view",
      "type": "function"
    },
    {
      "inputs": [],
      "name": "decimals",
      "outputs": [
        {
          "internalType": "uint8",
          "name": "",
          "type": "uint8"
        }
      ],
      "stateMutability": "view",
      "type": "function"
    },
    {
      "inputs": [
        {
          "internalType": "address",
          "name": "spender",
          "type": "address"
        },
        {
          "internalType": "uint256",
          "name": "subtractedValue",
          "type": "uint256"
        }
      ],
      "name": "decreaseAllowance",
      "outputs": [
        {
          "internalType": "bool",
          "name": "",
          "type": "bool"
        }
      ],
      "stateMutability": "nonpayable",
      "type": "function"
    },
    {
      "inputs": [
        {
          "internalType": "address",
          "name": "extToken",
          "type": "address"
        },
        {
          "internalType": "uint256",
          "name": "amt",
          "type": "uint256"
        }
      ],
      "name": "enoughForExchange",
      "outputs": [
        {
          "internalType": "bool",
          "name": "",
          "type": "bool"
        }
      ],
      "stateMutability": "view",
      "type": "function"
    },
    {
      "inputs": [
        {
          "internalType": "address",
          "name": "erc20",
          "type": "address"
        },
        {
          "internalType": "uint256",
          "name": "amt",
          "type": "uint256"
        }
      ],
      "name": "exchange",
      "outputs": [],
      "stateMutability": "nonpayable",
      "type": "function"
    },
    {
      "inputs": [
        {
          "internalType": "address",
          "name": "user",
          "type": "address"
        },
        {
          "internalType": "address",
          "name": "extToken",
          "type": "address"
        },
        {
          "internalType": "uint256",
          "name": "amt",
          "type": "uint256"
        }
      ],
      "name": "exchangeFor",
      "outputs": [
        {
          "internalType": "uint256",
          "name": "",
          "type": "uint256"
        }
      ],
      "stateMutability": "nonpayable",
      "type": "function"
    },
    {
      "inputs": [
        {
          "internalType": "address",
          "name": "",
          "type": "address"
        }
      ],
      "name": "exchangeRate",
      "outputs": [
        {
          "internalType": "uint16",
          "name": "",
          "type": "uint16"
        }
      ],
      "stateMutability": "view",
      "type": "function"
    },
    {
      "inputs": [
        {
          "internalType": "address",
          "name": "spender",
          "type": "address"
        },
        {
          "internalType": "uint256",
          "name": "addedValue",
          "type": "uint256"
        }
      ],
      "name": "increaseAllowance",
      "outputs": [
        {
          "internalType": "bool",
          "name": "",
          "type": "bool"
        }
      ],
      "stateMutability": "nonpayable",
      "type": "function"
    },
    {
      "inputs": [],
      "name": "name",
      "outputs": [
        {
          "internalType": "string",
          "name": "",
          "type": "string"
        }
      ],
      "stateMutability": "view",
      "type": "function"
    },
    {
      "inputs": [],
      "name": "owner",
      "outputs": [
        {
          "internalType": "address",
          "name": "",
          "type": "address"
        }
      ],
      "stateMutability": "view",
      "type": "function"
    },
    {
      "inputs": [
        {
          "internalType": "address",
          "name": "erc20",
          "type": "address"
        }
      ],
      "name": "removeExchangeRate",
      "outputs": [],
      "stateMutability": "nonpayable",
      "type": "function"
    },
    {
      "inputs": [],
      "name": "renounceOwnership",
      "outputs": [],
      "stateMutability": "nonpayable",
      "type": "function"
    },
    {
      "inputs": [
        {
          "internalType": "address",
          "name": "erc20",
          "type": "address"
        },
        {
          "internalType": "uint16",
          "name": "rate",
          "type": "uint16"
        }
      ],
      "name": "setExchangeRate",
      "outputs": [],
      "stateMutability": "nonpayable",
      "type": "function"
    },
    {
      "inputs": [],
      "name": "symbol",
      "outputs": [
        {
          "internalType": "string",
          "name": "",
          "type": "string"
        }
      ],
      "stateMutability": "view",
      "type": "function"
    },
    {
      "inputs": [],
      "name": "totalSupply",
      "outputs": [
        {
          "internalType": "uint256",
          "name": "",
          "type": "uint256"
        }
      ],
      "stateMutability": "view",
      "type": "function"
    },
    {
      "inputs": [
        {
          "internalType": "address",
          "name": "to",
          "type": "address"
        },
        {
          "internalType": "uint256",
          "name": "amount",
          "type": "uint256"
        }
      ],
      "name": "transfer",
      "outputs": [
        {
          "internalType": "bool",
          "name": "",
          "type": "bool"
        }
      ],
      "stateMutability": "nonpayable",
      "type": "function"
    },
    {
      "inputs": [
        {
          "internalType": "address",
          "name": "from",
          "type": "address"
        },
        {
          "internalType": "address",
          "name": "to",
          "type": "address"
        },
        {
          "internalType": "uint256",
          "name": "amount",
          "type": "uint256"
        }
      ],
      "name": "transferFrom",
      "outputs": [
        {
          "internalType": "bool",
          "name": "",
          "type": "bool"
        }
      ],
      "stateMutability": "nonpayable",
      "type": "function"
    },
    {
      "inputs": [
        {
          "internalType": "address",
          "name": "newOwner",
          "type": "address"
        }
      ],
      "name": "transferOwnership",
      "outputs": [],
      "stateMutability": "nonpayable",
      "type": "function"
    }
  ],
  "transactionHash": "0xc9600df78be762b523d76af6263a49960370e3a3ba03272ff509f436d6d462f7",
  "args": [
    "0xf24FF3a9CF04c71Dbc94D0b566f7A27B94566cac",
    "Defi2 Token",
    "DEFI2"
  ],
  "numDeployments": 1,
  "solcInputHash": "d281730b228cf8efcb3b5d22ef33cf76",
  "bytecode": "0x60806040523480156200001157600080fd5b5060405162002d5238038062002d5283398181016040528101906200003791906200073c565b81818160039080519060200190620000519291906200048a565b5080600490805190602001906200006a9291906200048a565b5050506200008d62000081620000f960201b60201c565b6200010160201b60201c565b6200009e83620001c760201b60201c565b620000c7836002683635c9adc5dea00000620000bb91906200083e565b620002dd60201b60201c565b620000f0306002683635c9adc5dea00000620000e491906200083e565b620002dd60201b60201c565b50505062000af3565b600033905090565b6000600560009054906101000a900473ffffffffffffffffffffffffffffffffffffffff16905081600560006101000a81548173ffffffffffffffffffffffffffffffffffffffff021916908373ffffffffffffffffffffffffffffffffffffffff1602179055508173ffffffffffffffffffffffffffffffffffffffff168173ffffffffffffffffffffffffffffffffffffffff167f8be0079c531659141344cd1fd0a4f28419497f9722a3daafe3b4186f6b6457e060405160405180910390a35050565b620001d7620000f960201b60201c565b73ffffffffffffffffffffffffffffffffffffffff16620001fd6200045660201b60201c565b73ffffffffffffffffffffffffffffffffffffffff161462000256576040517f08c379a00000000000000000000000000000000000000000000000000000000081526004016200024d90620008d7565b60405180910390fd5b600073ffffffffffffffffffffffffffffffffffffffff168173ffffffffffffffffffffffffffffffffffffffff161415620002c9576040517f08c379a0000000000000000000000000000000000000000000000000000000008152600401620002c0906200096f565b60405180910390fd5b620002da816200010160201b60201c565b50565b600073ffffffffffffffffffffffffffffffffffffffff168273ffffffffffffffffffffffffffffffffffffffff16141562000350576040517f08c379a00000000000000000000000000000000000000000000000000000000081526004016200034790620009e1565b60405180910390fd5b62000364600083836200048060201b60201c565b806002600082825462000378919062000a03565b92505081905550806000808473ffffffffffffffffffffffffffffffffffffffff1673ffffffffffffffffffffffffffffffffffffffff1681526020019081526020016000206000828254620003cf919062000a03565b925050819055508173ffffffffffffffffffffffffffffffffffffffff16600073ffffffffffffffffffffffffffffffffffffffff167fddf252ad1be2c89b69c2b068fc378daa952ba7f163c4a11628f55a4df523b3ef8360405162000436919062000a71565b60405180910390a362000452600083836200048560201b60201c565b5050565b6000600560009054906101000a900473ffffffffffffffffffffffffffffffffffffffff16905090565b505050565b505050565b828054620004989062000abd565b90600052602060002090601f016020900481019282620004bc576000855562000508565b82601f10620004d757805160ff191683800117855562000508565b8280016001018555821562000508579182015b8281111562000507578251825591602001919060010190620004ea565b5b5090506200051791906200051b565b5090565b5b80821115620005365760008160009055506001016200051c565b5090565b6000604051905090565b600080fd5b600080fd5b600073ffffffffffffffffffffffffffffffffffffffff82169050919050565b60006200057b826200054e565b9050919050565b6200058d816200056e565b81146200059957600080fd5b50565b600081519050620005ad8162000582565b92915050565b600080fd5b600080fd5b6000601f19601f8301169050919050565b7f4e487b7100000000000000000000000000000000000000000000000000000000600052604160045260246000fd5b6200060882620005bd565b810181811067ffffffffffffffff821117156200062a5762000629620005ce565b5b80604052505050565b60006200063f6200053a565b90506200064d8282620005fd565b919050565b600067ffffffffffffffff82111562000670576200066f620005ce565b5b6200067b82620005bd565b9050602081019050919050565b60005b83811015620006a85780820151818401526020810190506200068b565b83811115620006b8576000848401525b50505050565b6000620006d5620006cf8462000652565b62000633565b905082815260208101848484011115620006f457620006f3620005b8565b5b6200070184828562000688565b509392505050565b600082601f830112620007215762000720620005b3565b5b815162000733848260208601620006be565b91505092915050565b60008060006060848603121562000758576200075762000544565b5b600062000768868287016200059c565b935050602084015167ffffffffffffffff8111156200078c576200078b62000549565b5b6200079a8682870162000709565b925050604084015167ffffffffffffffff811115620007be57620007bd62000549565b5b620007cc8682870162000709565b9150509250925092565b6000819050919050565b7f4e487b7100000000000000000000000000000000000000000000000000000000600052601260045260246000fd5b7f4e487b7100000000000000000000000000000000000000000000000000000000600052601160045260246000fd5b60006200084b82620007d6565b91506200085883620007d6565b9250826200086b576200086a620007e0565b5b828204905092915050565b600082825260208201905092915050565b7f4f776e61626c653a2063616c6c6572206973206e6f7420746865206f776e6572600082015250565b6000620008bf60208362000876565b9150620008cc8262000887565b602082019050919050565b60006020820190508181036000830152620008f281620008b0565b9050919050565b7f4f776e61626c653a206e6577206f776e657220697320746865207a65726f206160008201527f6464726573730000000000000000000000000000000000000000000000000000602082015250565b60006200095760268362000876565b91506200096482620008f9565b604082019050919050565b600060208201905081810360008301526200098a8162000948565b9050919050565b7f45524332303a206d696e7420746f20746865207a65726f206164647265737300600082015250565b6000620009c9601f8362000876565b9150620009d68262000991565b602082019050919050565b60006020820190508181036000830152620009fc81620009ba565b9050919050565b600062000a1082620007d6565b915062000a1d83620007d6565b9250827fffffffffffffffffffffffffffffffffffffffffffffffffffffffffffffffff0382111562000a555762000a546200080f565b5b828201905092915050565b62000a6b81620007d6565b82525050565b600060208201905062000a88600083018462000a60565b92915050565b7f4e487b7100000000000000000000000000000000000000000000000000000000600052602260045260246000fd5b6000600282049050600182168062000ad657607f821691505b6020821081141562000aed5762000aec62000a8e565b5b50919050565b61224f8062000b036000396000f3fe608060405234801561001057600080fd5b506004361061012c5760003560e01c8063715018a6116100ad578063a9059cbb11610071578063a9059cbb14610359578063d4547c6614610389578063dc3b7c8b146103a5578063dd62ed3e146103d5578063f2fde38b146104055761012c565b8063715018a6146102b357806386b6048c146102bd5780638da5cb5b146102ed57806395d89b411461030b578063a457c2d7146103295761012c565b80631d86237f116100f45780631d86237f146101d557806323b872dd14610205578063313ce56714610235578063395093511461025357806370a08231146102835761012c565b8063045d03891461013157806306fdde031461014d578063095ea7b31461016b57806318160ddd1461019b57806319624b63146101b9575b600080fd5b61014b6004803603810190610146919061155d565b610421565b005b6101556105ad565b6040516101629190611636565b60405180910390f35b6101856004803603810190610180919061155d565b61063f565b6040516101929190611673565b60405180910390f35b6101a3610662565b6040516101b0919061169d565b60405180910390f35b6101d360048036038101906101ce91906116b8565b61066c565b005b6101ef60048036038101906101ea919061155d565b61077e565b6040516101fc9190611673565b60405180910390f35b61021f600480360381019061021a91906116e5565b61079d565b60405161022c9190611673565b60405180910390f35b61023d6107cc565b60405161024a9190611754565b60405180910390f35b61026d6004803603810190610268919061155d565b6107d5565b60405161027a9190611673565b60405180910390f35b61029d600480360381019061029891906116b8565b61087f565b6040516102aa919061169d565b60405180910390f35b6102bb6108c7565b005b6102d760048036038101906102d291906116e5565b61094f565b6040516102e4919061169d565b60405180910390f35b6102f5610980565b604051610302919061177e565b60405180910390f35b6103136109aa565b6040516103209190611636565b60405180910390f35b610343600480360381019061033e919061155d565b610a3c565b6040516103509190611673565b60405180910390f35b610373600480360381019061036e919061155d565b610b26565b6040516103809190611673565b60405180910390f35b6103a3600480360381019061039e91906117d3565b610b49565b005b6103bf60048036038101906103ba91906116b8565b610cb8565b6040516103cc9190611822565b60405180910390f35b6103ef60048036038101906103ea919061183d565b610cd9565b6040516103fc919061169d565b60405180910390f35b61041f600480360381019061041a91906116b8565b610d60565b005b8173ffffffffffffffffffffffffffffffffffffffff16631d86237f30836040518363ffffffff1660e01b815260040161045c92919061187d565b602060405180830381865afa158015610479573d6000803e3d6000fd5b505050506040513d601f19601f8201168201806040525081019061049d91906118d2565b6104dc576040517f08c379a00000000000000000000000000000000000000000000000000000000081526004016104d390611971565b60405180910390fd5b6104e68282610b26565b5060008273ffffffffffffffffffffffffffffffffffffffff166386b6048c3330856040518463ffffffff1660e01b815260040161052693929190611991565b6020604051808303816000875af1158015610545573d6000803e3d6000fd5b505050506040513d601f19601f8201168201806040525081019061056991906119dd565b90507f8e07dce5ad265d276b7263076f9b3643bd3c4a3a31a4162764c3da88cad60e0b838330846040516105a09493929190611a0a565b60405180910390a1505050565b6060600380546105bc90611a7e565b80601f01602080910402602001604051908101604052809291908181526020018280546105e890611a7e565b80156106355780601f1061060a57610100808354040283529160200191610635565b820191906000526020600020905b81548152906001019060200180831161061857829003601f168201915b5050505050905090565b60008061064a610e58565b9050610657818585610e60565b600191505092915050565b6000600254905090565b610674610e58565b73ffffffffffffffffffffffffffffffffffffffff16610692610980565b73ffffffffffffffffffffffffffffffffffffffff16146106e8576040517f08c379a00000000000000000000000000000000000000000000000000000000081526004016106df90611afc565b60405180910390fd5b600660008273ffffffffffffffffffffffffffffffffffffffff1673ffffffffffffffffffffffffffffffffffffffff16815260200190815260200160002060006101000a81549061ffff02191690558073ffffffffffffffffffffffffffffffffffffffff167f93824527cf29f16c0c3d321af9092e810fd310dfbcad08b5e6d8b4095714534960405160405180910390a250565b60006107893061087f565b610793848461102b565b1115905092915050565b6000806107a8610e58565b90506107b58582856110e7565b6107c0858585611173565b60019150509392505050565b60006012905090565b6000806107e0610e58565b9050610874818585600160008673ffffffffffffffffffffffffffffffffffffffff1673ffffffffffffffffffffffffffffffffffffffff16815260200190815260200160002060008973ffffffffffffffffffffffffffffffffffffffff1673ffffffffffffffffffffffffffffffffffffffff1681526020019081526020016000205461086f9190611b4b565b610e60565b600191505092915050565b60008060008373ffffffffffffffffffffffffffffffffffffffff1673ffffffffffffffffffffffffffffffffffffffff168152602001908152602001600020549050919050565b6108cf610e58565b73ffffffffffffffffffffffffffffffffffffffff166108ed610980565b73ffffffffffffffffffffffffffffffffffffffff1614610943576040517f08c379a000000000000000000000000000000000000000000000000000000000815260040161093a90611afc565b60405180910390fd5b61094d60006113f4565b565b60008061095c848461102b565b9050610969303383610e60565b61097430868361079d565b50809150509392505050565b6000600560009054906101000a900473ffffffffffffffffffffffffffffffffffffffff16905090565b6060600480546109b990611a7e565b80601f01602080910402602001604051908101604052809291908181526020018280546109e590611a7e565b8015610a325780601f10610a0757610100808354040283529160200191610a32565b820191906000526020600020905b815481529060010190602001808311610a1557829003601f168201915b5050505050905090565b600080610a47610e58565b90506000600160008373ffffffffffffffffffffffffffffffffffffffff1673ffffffffffffffffffffffffffffffffffffffff16815260200190815260200160002060008673ffffffffffffffffffffffffffffffffffffffff1673ffffffffffffffffffffffffffffffffffffffff16815260200190815260200160002054905083811015610b0d576040517f08c379a0000000000000000000000000000000000000000000000000000000008152600401610b0490611c13565b60405180910390fd5b610b1a8286868403610e60565b60019250505092915050565b600080610b31610e58565b9050610b3e818585611173565b600191505092915050565b610b51610e58565b73ffffffffffffffffffffffffffffffffffffffff16610b6f610980565b73ffffffffffffffffffffffffffffffffffffffff1614610bc5576040517f08c379a0000000000000000000000000000000000000000000000000000000008152600401610bbc90611afc565b60405180910390fd5b60008161ffff1611610c0c576040517f08c379a0000000000000000000000000000000000000000000000000000000008152600401610c0390611c7f565b60405180910390fd5b80600660008473ffffffffffffffffffffffffffffffffffffffff1673ffffffffffffffffffffffffffffffffffffffff16815260200190815260200160002060006101000a81548161ffff021916908361ffff1602179055508173ffffffffffffffffffffffffffffffffffffffff167f52e23520ea233535bb7ec6e6669865cdea0c0b4446193ca24ba5455d3c524ce682604051610cac9190611cda565b60405180910390a25050565b60066020528060005260406000206000915054906101000a900461ffff1681565b6000600160008473ffffffffffffffffffffffffffffffffffffffff1673ffffffffffffffffffffffffffffffffffffffff16815260200190815260200160002060008373ffffffffffffffffffffffffffffffffffffffff1673ffffffffffffffffffffffffffffffffffffffff16815260200190815260200160002054905092915050565b610d68610e58565b73ffffffffffffffffffffffffffffffffffffffff16610d86610980565b73ffffffffffffffffffffffffffffffffffffffff1614610ddc576040517f08c379a0000000000000000000000000000000000000000000000000000000008152600401610dd390611afc565b60405180910390fd5b600073ffffffffffffffffffffffffffffffffffffffff168173ffffffffffffffffffffffffffffffffffffffff161415610e4c576040517f08c379a0000000000000000000000000000000000000000000000000000000008152600401610e4390611d67565b60405180910390fd5b610e55816113f4565b50565b600033905090565b600073ffffffffffffffffffffffffffffffffffffffff168373ffffffffffffffffffffffffffffffffffffffff161415610ed0576040517f08c379a0000000000000000000000000000000000000000000000000000000008152600401610ec790611df9565b60405180910390fd5b600073ffffffffffffffffffffffffffffffffffffffff168273ffffffffffffffffffffffffffffffffffffffff161415610f40576040517f08c379a0000000000000000000000000000000000000000000000000000000008152600401610f3790611e8b565b60405180910390fd5b80600160008573ffffffffffffffffffffffffffffffffffffffff1673ffffffffffffffffffffffffffffffffffffffff16815260200190815260200160002060008473ffffffffffffffffffffffffffffffffffffffff1673ffffffffffffffffffffffffffffffffffffffff168152602001908152602001600020819055508173ffffffffffffffffffffffffffffffffffffffff168373ffffffffffffffffffffffffffffffffffffffff167f8c5be1e5ebec7d5bd14f71427d1e84f3dd0314c0f7b2291e5b200ac8c7c3b9258360405161101e919061169d565b60405180910390a3505050565b600080600660008573ffffffffffffffffffffffffffffffffffffffff1673ffffffffffffffffffffffffffffffffffffffff16815260200190815260200160002060009054906101000a900461ffff1661ffff169050600081116110c5576040517f08c379a00000000000000000000000000000000000000000000000000000000081526004016110bc90611f1d565b60405180910390fd5b6103e881846110d49190611f3d565b6110de9190611fc6565b91505092915050565b60006110f38484610cd9565b90507fffffffffffffffffffffffffffffffffffffffffffffffffffffffffffffffff811461116d578181101561115f576040517f08c379a000000000000000000000000000000000000000000000000000000000815260040161115690612043565b60405180910390fd5b61116c8484848403610e60565b5b50505050565b600073ffffffffffffffffffffffffffffffffffffffff168373ffffffffffffffffffffffffffffffffffffffff1614156111e3576040517f08c379a00000000000000000000000000000000000000000000000000000000081526004016111da906120d5565b60405180910390fd5b600073ffffffffffffffffffffffffffffffffffffffff168273ffffffffffffffffffffffffffffffffffffffff161415611253576040517f08c379a000000000000000000000000000000000000000000000000000000000815260040161124a90612167565b60405180910390fd5b61125e8383836114ba565b60008060008573ffffffffffffffffffffffffffffffffffffffff1673ffffffffffffffffffffffffffffffffffffffff168152602001908152602001600020549050818110156112e4576040517f08c379a00000000000000000000000000000000000000000000000000000000081526004016112db906121f9565b60405180910390fd5b8181036000808673ffffffffffffffffffffffffffffffffffffffff1673ffffffffffffffffffffffffffffffffffffffff16815260200190815260200160002081905550816000808573ffffffffffffffffffffffffffffffffffffffff1673ffffffffffffffffffffffffffffffffffffffff16815260200190815260200160002060008282546113779190611b4b565b925050819055508273ffffffffffffffffffffffffffffffffffffffff168473ffffffffffffffffffffffffffffffffffffffff167fddf252ad1be2c89b69c2b068fc378daa952ba7f163c4a11628f55a4df523b3ef846040516113db919061169d565b60405180910390a36113ee8484846114bf565b50505050565b6000600560009054906101000a900473ffffffffffffffffffffffffffffffffffffffff16905081600560006101000a81548173ffffffffffffffffffffffffffffffffffffffff021916908373ffffffffffffffffffffffffffffffffffffffff1602179055508173ffffffffffffffffffffffffffffffffffffffff168173ffffffffffffffffffffffffffffffffffffffff167f8be0079c531659141344cd1fd0a4f28419497f9722a3daafe3b4186f6b6457e060405160405180910390a35050565b505050565b505050565b600080fd5b600073ffffffffffffffffffffffffffffffffffffffff82169050919050565b60006114f4826114c9565b9050919050565b611504816114e9565b811461150f57600080fd5b50565b600081359050611521816114fb565b92915050565b6000819050919050565b61153a81611527565b811461154557600080fd5b50565b60008135905061155781611531565b92915050565b60008060408385031215611574576115736114c4565b5b600061158285828601611512565b925050602061159385828601611548565b9150509250929050565b600081519050919050565b600082825260208201905092915050565b60005b838110156115d75780820151818401526020810190506115bc565b838111156115e6576000848401525b50505050565b6000601f19601f8301169050919050565b60006116088261159d565b61161281856115a8565b93506116228185602086016115b9565b61162b816115ec565b840191505092915050565b6000602082019050818103600083015261165081846115fd565b905092915050565b60008115159050919050565b61166d81611658565b82525050565b60006020820190506116886000830184611664565b92915050565b61169781611527565b82525050565b60006020820190506116b2600083018461168e565b92915050565b6000602082840312156116ce576116cd6114c4565b5b60006116dc84828501611512565b91505092915050565b6000806000606084860312156116fe576116fd6114c4565b5b600061170c86828701611512565b935050602061171d86828701611512565b925050604061172e86828701611548565b9150509250925092565b600060ff82169050919050565b61174e81611738565b82525050565b60006020820190506117696000830184611745565b92915050565b611778816114e9565b82525050565b6000602082019050611793600083018461176f565b92915050565b600061ffff82169050919050565b6117b081611799565b81146117bb57600080fd5b50565b6000813590506117cd816117a7565b92915050565b600080604083850312156117ea576117e96114c4565b5b60006117f885828601611512565b9250506020611809858286016117be565b9150509250929050565b61181c81611799565b82525050565b60006020820190506118376000830184611813565b92915050565b60008060408385031215611854576118536114c4565b5b600061186285828601611512565b925050602061187385828601611512565b9150509250929050565b6000604082019050611892600083018561176f565b61189f602083018461168e565b9392505050565b6118af81611658565b81146118ba57600080fd5b50565b6000815190506118cc816118a6565b92915050565b6000602082840312156118e8576118e76114c4565b5b60006118f6848285016118bd565b91505092915050565b7f4e6f7420656e6f7567682062616c616e63652066726f6d20746865207461726760008201527f657420746f6b656e207377617070696e6720706f6f6c00000000000000000000602082015250565b600061195b6036836115a8565b9150611966826118ff565b604082019050919050565b6000602082019050818103600083015261198a8161194e565b9050919050565b60006060820190506119a6600083018661176f565b6119b3602083018561176f565b6119c0604083018461168e565b949350505050565b6000815190506119d781611531565b92915050565b6000602082840312156119f3576119f26114c4565b5b6000611a01848285016119c8565b91505092915050565b6000608082019050611a1f600083018761176f565b611a2c602083018661168e565b611a39604083018561176f565b611a46606083018461168e565b95945050505050565b7f4e487b7100000000000000000000000000000000000000000000000000000000600052602260045260246000fd5b60006002820490506001821680611a9657607f821691505b60208210811415611aaa57611aa9611a4f565b5b50919050565b7f4f776e61626c653a2063616c6c6572206973206e6f7420746865206f776e6572600082015250565b6000611ae66020836115a8565b9150611af182611ab0565b602082019050919050565b60006020820190508181036000830152611b1581611ad9565b9050919050565b7f4e487b7100000000000000000000000000000000000000000000000000000000600052601160045260246000fd5b6000611b5682611527565b9150611b6183611527565b9250827fffffffffffffffffffffffffffffffffffffffffffffffffffffffffffffffff03821115611b9657611b95611b1c565b5b828201905092915050565b7f45524332303a2064656372656173656420616c6c6f77616e63652062656c6f7760008201527f207a65726f000000000000000000000000000000000000000000000000000000602082015250565b6000611bfd6025836115a8565b9150611c0882611ba1565b604082019050919050565b60006020820190508181036000830152611c2c81611bf0565b9050919050565b7f726174652068617320746f20626520626967676572207468616e207a65726f00600082015250565b6000611c69601f836115a8565b9150611c7482611c33565b602082019050919050565b60006020820190508181036000830152611c9881611c5c565b9050919050565b6000819050919050565b6000611cc4611cbf611cba84611799565b611c9f565b611527565b9050919050565b611cd481611ca9565b82525050565b6000602082019050611cef6000830184611ccb565b92915050565b7f4f776e61626c653a206e6577206f776e657220697320746865207a65726f206160008201527f6464726573730000000000000000000000000000000000000000000000000000602082015250565b6000611d516026836115a8565b9150611d5c82611cf5565b604082019050919050565b60006020820190508181036000830152611d8081611d44565b9050919050565b7f45524332303a20617070726f76652066726f6d20746865207a65726f2061646460008201527f7265737300000000000000000000000000000000000000000000000000000000602082015250565b6000611de36024836115a8565b9150611dee82611d87565b604082019050919050565b60006020820190508181036000830152611e1281611dd6565b9050919050565b7f45524332303a20617070726f766520746f20746865207a65726f20616464726560008201527f7373000000000000000000000000000000000000000000000000000000000000602082015250565b6000611e756022836115a8565b9150611e8082611e19565b604082019050919050565b60006020820190508181036000830152611ea481611e68565b9050919050565b7f45786368616e67652072617465206973206e6f742073657420666f722074686560008201527f20746f6b656e0000000000000000000000000000000000000000000000000000602082015250565b6000611f076026836115a8565b9150611f1282611eab565b604082019050919050565b60006020820190508181036000830152611f3681611efa565b9050919050565b6000611f4882611527565b9150611f5383611527565b9250817fffffffffffffffffffffffffffffffffffffffffffffffffffffffffffffffff0483118215151615611f8c57611f8b611b1c565b5b828202905092915050565b7f4e487b7100000000000000000000000000000000000000000000000000000000600052601260045260246000fd5b6000611fd182611527565b9150611fdc83611527565b925082611fec57611feb611f97565b5b828204905092915050565b7f45524332303a20696e73756666696369656e7420616c6c6f77616e6365000000600082015250565b600061202d601d836115a8565b915061203882611ff7565b602082019050919050565b6000602082019050818103600083015261205c81612020565b9050919050565b7f45524332303a207472616e736665722066726f6d20746865207a65726f20616460008201527f6472657373000000000000000000000000000000000000000000000000000000602082015250565b60006120bf6025836115a8565b91506120ca82612063565b604082019050919050565b600060208201905081810360008301526120ee816120b2565b9050919050565b7f45524332303a207472616e7366657220746f20746865207a65726f206164647260008201527f6573730000000000000000000000000000000000000000000000000000000000602082015250565b60006121516023836115a8565b915061215c826120f5565b604082019050919050565b6000602082019050818103600083015261218081612144565b9050919050565b7f45524332303a207472616e7366657220616d6f756e742065786365656473206260008201527f616c616e63650000000000000000000000000000000000000000000000000000602082015250565b60006121e36026836115a8565b91506121ee82612187565b604082019050919050565b60006020820190508181036000830152612212816121d6565b905091905056fea264697066735822122046b3e4bbb130ad4230489847112718ddd4511b8b685e80ca3770eb64c676f33c64736f6c634300080c0033",
  "devdoc": {
    "kind": "dev",
    "methods": {
      "allowance(address,address)": {
        "details": "See {IERC20-allowance}."
      },
      "approve(address,uint256)": {
        "details": "See {IERC20-approve}. NOTE: If `amount` is the maximum `uint256`, the allowance is not updated on `transferFrom`. This is semantically equivalent to an infinite approval. Requirements: - `spender` cannot be the zero address."
      },
      "balanceOf(address)": {
        "details": "See {IERC20-balanceOf}."
      },
      "decimals()": {
        "details": "Returns the number of decimals used to get its user representation. For example, if `decimals` equals `2`, a balance of `505` tokens should be displayed to a user as `5.05` (`505 / 10 ** 2`). Tokens usually opt for a value of 18, imitating the relationship between Ether and Wei. This is the value {ERC20} uses, unless this function is overridden; NOTE: This information is only used for _display_ purposes: it in no way affects any of the arithmetic of the contract, including {IERC20-balanceOf} and {IERC20-transfer}."
      },
      "decreaseAllowance(address,uint256)": {
        "details": "Atomically decreases the allowance granted to `spender` by the caller. This is an alternative to {approve} that can be used as a mitigation for problems described in {IERC20-approve}. Emits an {Approval} event indicating the updated allowance. Requirements: - `spender` cannot be the zero address. - `spender` must have allowance for the caller of at least `subtractedValue`."
      },
      "increaseAllowance(address,uint256)": {
        "details": "Atomically increases the allowance granted to `spender` by the caller. This is an alternative to {approve} that can be used as a mitigation for problems described in {IERC20-approve}. Emits an {Approval} event indicating the updated allowance. Requirements: - `spender` cannot be the zero address."
      },
      "name()": {
        "details": "Returns the name of the token."
      },
      "owner()": {
        "details": "Returns the address of the current owner."
      },
      "renounceOwnership()": {
        "details": "Leaves the contract without owner. It will not be possible to call `onlyOwner` functions anymore. Can only be called by the current owner. NOTE: Renouncing ownership will leave the contract without an owner, thereby removing any functionality that is only available to the owner."
      },
      "symbol()": {
        "details": "Returns the symbol of the token, usually a shorter version of the name."
      },
      "totalSupply()": {
        "details": "See {IERC20-totalSupply}."
      },
      "transfer(address,uint256)": {
        "details": "See {IERC20-transfer}. Requirements: - `to` cannot be the zero address. - the caller must have a balance of at least `amount`."
      },
      "transferFrom(address,address,uint256)": {
        "details": "See {IERC20-transferFrom}. Emits an {Approval} event indicating the updated allowance. This is not required by the EIP. See the note at the beginning of {ERC20}. NOTE: Does not update the allowance if the current allowance is the maximum `uint256`. Requirements: - `from` and `to` cannot be the zero address. - `from` must have a balance of at least `amount`. - the caller must have allowance for ``from``'s tokens of at least `amount`."
      },
      "transferOwnership(address)": {
        "details": "Transfers ownership of the contract to a new account (`newOwner`). Can only be called by the current owner."
      }
    },
    "version": 1
  },
  "userdoc": {
    "kind": "user",
    "methods": {},
    "version": 1
  },
  "storageLayout": {
    "storage": [
      {
        "astId": 120,
        "contract": "contracts/ERC20SwapToken.sol:ERC20SwapToken",
        "label": "_balances",
        "offset": 0,
        "slot": "0",
        "type": "t_mapping(t_address,t_uint256)"
      },
      {
        "astId": 126,
        "contract": "contracts/ERC20SwapToken.sol:ERC20SwapToken",
        "label": "_allowances",
        "offset": 0,
        "slot": "1",
        "type": "t_mapping(t_address,t_mapping(t_address,t_uint256))"
      },
      {
        "astId": 128,
        "contract": "contracts/ERC20SwapToken.sol:ERC20SwapToken",
        "label": "_totalSupply",
        "offset": 0,
        "slot": "2",
        "type": "t_uint256"
      },
      {
        "astId": 130,
        "contract": "contracts/ERC20SwapToken.sol:ERC20SwapToken",
        "label": "_name",
        "offset": 0,
        "slot": "3",
        "type": "t_string_storage"
      },
      {
        "astId": 132,
        "contract": "contracts/ERC20SwapToken.sol:ERC20SwapToken",
        "label": "_symbol",
        "offset": 0,
        "slot": "4",
        "type": "t_string_storage"
      },
      {
        "astId": 7,
        "contract": "contracts/ERC20SwapToken.sol:ERC20SwapToken",
        "label": "_owner",
        "offset": 0,
        "slot": "5",
        "type": "t_address"
      },
      {
        "astId": 833,
        "contract": "contracts/ERC20SwapToken.sol:ERC20SwapToken",
        "label": "exchangeRate",
        "offset": 0,
        "slot": "6",
        "type": "t_mapping(t_address,t_uint16)"
      }
    ],
    "types": {
      "t_address": {
        "encoding": "inplace",
        "label": "address",
        "numberOfBytes": "20"
      },
      "t_mapping(t_address,t_mapping(t_address,t_uint256))": {
        "encoding": "mapping",
        "key": "t_address",
        "label": "mapping(address => mapping(address => uint256))",
        "numberOfBytes": "32",
        "value": "t_mapping(t_address,t_uint256)"
      },
      "t_mapping(t_address,t_uint16)": {
        "encoding": "mapping",
        "key": "t_address",
        "label": "mapping(address => uint16)",
        "numberOfBytes": "32",
        "value": "t_uint16"
      },
      "t_mapping(t_address,t_uint256)": {
        "encoding": "mapping",
        "key": "t_address",
        "label": "mapping(address => uint256)",
        "numberOfBytes": "32",
        "value": "t_uint256"
      },
      "t_string_storage": {
        "encoding": "bytes",
        "label": "string",
        "numberOfBytes": "32"
      },
      "t_uint16": {
        "encoding": "inplace",
        "label": "uint16",
        "numberOfBytes": "2"
      },
      "t_uint256": {
        "encoding": "inplace",
        "label": "uint256",
        "numberOfBytes": "32"
      }
    }
  }
}